:100000000C942A000C9447000C9447000C94470071
:100010000C9447000C9447000C9447000C94470044
:100020000C9447000C9447000C9447000C94470034
:100030000C9447000C9447000C9447000C94470024
:100040000C9447000C9447000C9447000C94470014
:100050000C94470011241FBECFE5D8E0DEBFCDBF12
:1000600010E0A0E6B0E0E2E2FFE002C005900D92F1
:10007000A23AB107D9F720E0A2EAB0E001C01D9290
:10008000A23AB207E1F70E945C020C948F070C942D
:1000900000009C0183E083BF83E808C082BF98B75B
:1000A000916098BFA89508B600FEFDCF2150310998
:1000B000A8F713BE0895662311F0C09A01C0C09836
:1000C000C19882BB8FEF81BBC29A00000000000084
:1000D000C2980895C098C19A11BA90B3C29A00000C
:1000E0000000000011BA90B3C29899239CF30E94BB
:1000F0005B000895B89AB99ABA9A80E190E00E949C
:10010000490060E080E30E945B0085E090E00E948F
:10011000490060E080E30E945B0081E090E00E9483
:10012000490060E08CE30E946A0060E08CE00E947D
:100130006A0060E086E00E946A0060E081E00E9460
:100140006A00089560E081E00E946A000895CF93FC
:10015000C62F98E2899FC00D112460E082E00E94C2
:100160006A00CC2331F060E084E10E946A00C15053
:10017000D1F7CF910895CF93DF93EC012196FC0145
:100180008081882331F061E00E946A0089918111A9
:10019000FACFDF91CF91089514BA15BA95B321E043
:1001A00030E0A901082E02C0440F551F0A94E2F75F
:1001B000492B45BB94B302C0220F331F6A95E2F767
:1001C000922B94BB95B32095292325BB23B330E014
:1001D00002C0359527958A95E2F781E090E020FFEF
:1001E00002C080E090E008950F931F93CF93DF93B8
:1001F00000E010E01AC0BE016C5F7F4FC8010E9492
:10020000CC00009749F0000F111F000F111FC00F05
:10021000D11FCE0101960CC02196C430D10559F7EB
:100220000F5F1F4F0430110519F0C0E0D0E0E3CF9D
:10023000DF91CF911F910F9108950E947A000E9443
:10024000A20081E090E00895379A369A86B1089529
:100250004F925F926F927F928F929F92AF92BF92D6
:10026000CF92DF92EF92FF920F931F93CF93DF9382
:10027000CDB7DEB7E4970FB6F894DEBF0FBECDBFA3
:100280008C010E94A200D8018D909D90AD90BC90F1
:10029000C501B4010E944B0369A37AA38BA39CA35D
:1002A000F8014480558066807780C301B2010E94C6
:1002B0004B036DA37EA38FA398A7D80118968D91A9
:1002C0009D910D90BC91A02D89AB9AABABABBCAB13
:1002D000BC01CD010E944B0369A77AA78BA79CA7FD
:1002E000F801C484D584E684F784C701B6010E946E
:1002F0004B036DA77EA78FA798AB2DA13EA1B90197
:10030000330F880B990B0E9483039B01AC01C3013F
:10031000B2010E94D9020E944B037F936F933EA1CA
:100320003F938DA18F93A9A1BAA1BD01BB0F880BEB
:10033000990B0E9483039B01AC01C501B4010E948B
:10034000D9020E944B037F936F93BAA1BF93E9A197
:10035000EF9380E690E09F938F938E010F5F1F4F86
:100360001F930F930E94A50460E080E00E94A70005
:10037000C8010E94BB002DA53EA5B901330F880B13
:10038000990B0E9483039B01AC01C701B6010E9437
:10039000D9020E944B037F936F933EA53F938DA597
:1003A0008F93A9A5BAA5BD01BB0F880B990B0E941D
:1003B00083039B01AC0169A97AA98BA99CA90E941E
:1003C000D9020E944B037F936F93BAA5BF93E9A50F
:1003D000EF9389E790E09F938F93005F1F4F1F93E8
:1003E0000F930E94A50460E081E00E94A700C8016D
:1003F0000E94BB000FB6F894DEBF0FBECDBFE496DF
:100400000FB6F894DEBF0FBECDBFDF91CF911F9125
:100410000F91FF90EF90DF90CF90BF90AF909F90A3
:100420008F907F906F905F904F900895CF92DF9262
:10043000EF92FF92CF93DF93EB01BC0180E090E05D
:100440000E9481036B017C01688379838A839B838B
:100450002C853D854E855F850E94DA0220E030E0E4
:1004600040E05FE30E9438046C877D878E879F871A
:100470002C813D814E815F81C701B6010E9433040A
:1004800018162CF4CC82DD82EE82FF820EC0288505
:1004900039854A855B85C701B6010E9446038823DA
:1004A00024F4C886D986EA86FB86DF91CF91FF9037
:1004B000EF90DF90CF900895CF93DF93CDB7DEB765
:1004C00060970FB6F894DEBF0FBECDBF80E090E01E
:1004D000A0E8BFE389839A83AB83BC8380E090E08C
:1004E000A0E0B0E48D839E83AF83B88780E090E086
:1004F000A0E4B0E489879A87AB87BC8780E090E06E
:10050000A0E8B0E48D879E87AF87B88B0E941D015D
:1005100060E080E00E94A70081E990E00E94BB00BB
:100520000E94F4004097A1F70E94F4000C97D9F4C0
:1005300019821A821B821C821D821E821F821886CB
:1005400019861A861B861C861D861E861F86188A9B
:100550000E94A20060E080E00E94A70081E990E094
:100560000E94BB00D5CF0E9424010E94520380E06C
:1005700090E00E94810320E030E040EA50E40E94D5
:10058000380420E030E040E85AE30E9438040E943A
:100590005203DC01CB01BE016F5F7F4F0E94160248
:1005A000CE0101960E94280180ED97E00E9449004B
:1005B000BBCF5058BB27AA270E94F1020C94F90325
:1005C0000E94EB0338F00E94F20320F039F49F3FC1
:1005D00019F426F40C94E8030EF4E095E7FB0C9470
:1005E000E203E92F0E940A0458F3BA17620773075F
:1005F0008407950720F079F4A6F50C942C040EF4EA
:10060000E0950B2EBA2FA02D0B01B90190010C0122
:10061000CA01A0011124FF27591B99F0593F50F43A
:10062000503E68F11A16F040A22F232F342F442792
:10063000585FF3CF469537952795A795F04053958A
:10064000C9F77EF41F16BA0B620B730B840BBAF05A
:100650009150A1F0FF0FBB1F661F771F881FC2F7C5
:100660000EC0BA0F621F731F841F48F487957795D9
:100670006795B795F7959E3F08F0B0CF9395880F93
:1006800008F09927EE0F9795879508950E94BE036D
:1006900008F481E008950E9452036894B1110C940B
:1006A0002D0408950E94120488F09F5798F0B92FE6
:1006B0009927B751B0F0E1F0660F771F881F991F97
:1006C0001AF0BA95C9F714C0B13091F00E942C0409
:1006D000B1E008950C942C04672F782F8827B85F19
:1006E00039F0B93FCCF3869577956795B395D9F7EF
:1006F0003EF490958095709561957F4F8F4F9F4FF9
:100700000895E89409C097FB3EF490958095709504
:1007100061957F4F8F4F9F4F9923A9F0F92F96E94D
:10072000BB279395F695879577956795B795F111C2
:10073000F8CFFAF4BB0F11F460FF1BC06F5F7F4F5F
:100740008F4F9F4F16C0882311F096E911C0772371
:1007500021F09EE8872F762F05C0662371F096E87A
:10076000862F70E060E02AF09A95660F771F881F49
:10077000DAF7880F9695879597F90895990F0008ED
:10078000550FAA0BE0E8FEEF16161706E807F90763
:10079000C0F012161306E407F50798F0621B730BFE
:1007A000840B950B39F40A2661F0232B242B252B7F
:1007B00021F408950A2609F4A140A6958FEF811D22
:1007C000811D089597F99F6780E870E060E00895C3
:1007D0009FEF80EC089500240A9416161706180659
:1007E0000906089500240A94121613061406050635
:1007F0000895092E0394000C11F4882352F0BB0FC6
:1008000040F4BF2B11F460FF04C06F5F7F4F8F4F28
:100810009F4F089557FD9058440F551F59F05F3F63
:1008200071F04795880F97FB991F61F09F3F79F012
:1008300087950895121613061406551FF2CF469594
:10084000F1DF08C0161617061806991FF1CF869516
:100850007105610508940895E894BB2766277727FA
:10086000CB0197F908950E94BE0308F48FEF089515
:100870000E944B040C94F9030E94EB0338F00E9491
:10088000F20320F0952311F00C94E2030C94E8039A
:1008900011240C942D040E940A0470F3959FC1F357
:1008A000950F50E0551F629FF001729FBB27F00D1E
:1008B000B11D639FAA27F00DB11DAA1F649F662773
:1008C000B00DA11D661F829F2227B00DA11D621FC2
:1008D000739FB00DA11D621F839FA00D611D221F7C
:1008E000749F3327A00D611D231F849F600D211D60
:1008F000822F762F6A2F11249F5750409AF0F1F0E3
:1009000088234AF0EE0FFF1FBB1F661F771F881F4B
:1009100091505040A9F79E3F510580F00C94E2039E
:100920000C942D045F3FE4F3983ED4F386957795BD
:100930006795B795F795E7959F5FC1F7FE2B880FF1
:10094000911D9695879597F90895AEE0B0E0EBEA92
:10095000F4E00C9466070D891E8986E08C831A8367
:1009600009838FEF9FE79E838D83AE01475E5F4FC4
:100970006F89788DCE0101960E94C704EF81F885BA
:10098000E00FF11F10822E96E4E00C948207ABE09A
:10099000B0E0EDECF4E00C9458076C017B018A01A7
:1009A000FC0117821682838181FFCCC1CE010196A2
:1009B0003C01F6019381F70193FD859193FF8191AD
:1009C0007F01882309F4BAC1853239F493FD8591FA
:1009D00093FF81917F01853229F4B60190E00E9456
:1009E000BE06E7CF912C212C312CFFE1F315D8F076
:1009F0008B3279F038F4803279F08332A1F4232DF0
:100A000020611DC08D3261F0803369F4232D216097
:100A100016C0832D8260382EE32DE4603E2E2AC05E
:100A2000F32DF8601DC037FC2DC020ED280F2A30B3
:100A300040F08E32B9F436FC81C1232D2064322E71
:100A400019C036FE06C08AE0989E200D1124922E11
:100A500011C0EAE02E9E200D1124222EF32DF0620B
:100A60003F2E08C08C3621F4832D8068382E02C0BA
:100A7000883641F4F70193FD859193FF81917F01C1
:100A80008111B3CF982F9F7D9554933028F40C5F3C
:100A90001F4F9FE399830DC0833631F0833771F088
:100AA000833509F059C021C0F801808189830E5F28
:100AB0001F4F88248394912C530113C02801F2E026
:100AC0004F0E511CF801A080B18036FE03C0692D85
:100AD00070E002C06FEF7FEFC5010E94B3064C01CA
:100AE0008201F32DFF773F2E16C0280122E0420E2F
:100AF000511CF801A080B18036FE03C0692D70E062
:100B000002C06FEF7FEFC5010E94A8064C01F32DD4
:100B1000F0683F2E820133FC1BC0822D90E08816C6
:100B20009906B0F4B60180E290E00E94BE062A94D5
:100B3000F4CFF50137FC859137FE81915F01B60155
:100B400090E00E94BE0621102A9421E0821A9108AA
:100B50008114910471F7E8C0843611F0893641F5AB
:100B6000F80137FE07C060817181828193810C5F3B
:100B70001F4F08C060817181072E000C880B990BF4
:100B80000E5F1F4FF32DFF763F2E97FF09C0909504
:100B90008095709561957F4F8F4F9F4FF0683F2EE6
:100BA0002AE030E0A3010E94FA06882E861845C08C
:100BB000853731F4232D2F7EB22E2AE030E025C078
:100BC000932D997FB92E8F36C1F018F4883579F0BE
:100BD000B5C0803719F0883721F0B0C0E92FE06147
:100BE000BE2EB4FE0DC0FB2DF460BF2E09C034FE36
:100BF0000AC0292F2660B22E06C028E030E005C0CA
:100C000020E130E002C020E132E0F801B7FE07C089
:100C100060817181828193810C5F1F4F06C060816A
:100C2000718180E090E00E5F1F4FA3010E94FA06E1
:100C3000882E8618FB2DFF773F2E36FE0DC0232D04
:100C40002E7FA22E891458F434FE0BC032FC09C04A
:100C5000832D8E7EA82E05C0B82CA32C03C0B82CE3
:100C600001C0B92CA4FE0FC0FE01E80DF11D80816A
:100C7000803321F49A2D997EA92E09C0A2FE06C0C8
:100C8000B394B39404C08A2D867809F0B394A3FC7E
:100C900011C0A0FE06C0B21488F4280C922C9B1838
:100CA0000EC0B21460F4B60180E290E00E94BE066D
:100CB000B394F7CFB21418F42B1802C0982C212C3F
:100CC000A4FE10C0B60180E390E00E94BE06A2FE22
:100CD00017C0A1FC03C088E790E002C088E590E05F
:100CE000B6010CC08A2D867859F0A1FE02C08BE2B5
:100CF00001C080E2A7FC8DE2B60190E00E94BE0632
:100D0000891438F4B60180E390E00E94BE069A94FC
:100D1000F7CF8A94F301E80DF11D8081B60190E0D0
:100D20000E94BE068110F5CF222009F442CEB60102
:100D300080E290E00E94BE062A94F6CFF6018681FA
:100D4000978102C08FEF9FEF2B96E2E10C9474071E
:100D5000FC010590615070400110D8F78095909586
:100D60008E0F9F1F0895FC0161507040019001108B
:100D7000D8F7809590958E0F9F1F08950F931F931E
:100D8000CF93DF93FB01238121FD03C08FEF9FEF02
:100D90002CC022FF16C0468157812481358142171D
:100DA000530744F4A081B1819D012F5F3F4F3183F0
:100DB00020838C93268137812F5F3F4F3783268393
:100DC00014C08B01EC01FB010084F185E02D099535
:100DD000892BE1F6D80116968D919C911797019673
:100DE00017969C938E931697CE01DF91CF911F910A
:100DF0000F910895FA01AA27283051F1203181F18D
:100E0000E8946F936E7F6E5F7F4F8F4F9F4FAF4F12
:100E1000B1E03ED0B4E03CD0670F781F891F9A1F25
:100E2000A11D680F791F8A1F911DA11D6A0F711DD9
:100E3000811D911DA11D20D009F468943F912AE0E5
:100E4000269F11243019305D3193DEF6CF010895CD
:100E5000462F4770405D4193B3E00FD0C9F7F6CFFE
:100E6000462F4F70405D4A3318F0495D31FD4052C6
:100E7000419302D0A9F7EACFB4E0A695979587955C
:100E800077956795BA95C9F700976105710508953B
:100E90009B01AC010A2E06945795479537952795E7
:100EA000BA95C9F7620F731F841F951FA01D08957F
:100EB0002F923F924F925F926F927F928F929F926A
:100EC000AF92BF92CF92DF92EF92FF920F931F9358
:100ED000CF93DF93CDB7DEB7CA1BDB0B0FB6F89409
:100EE000DEBF0FBECDBF09942A88398848885F8449
:100EF0006E847D848C849B84AA84B984C884DF80BA
:100F0000EE80FD800C811B81AA81B981CE0FD11D9D
:100F10000FB6F894DEBF0FBECDBFED010895F89473
:020F2000FFCF01
:100F2200493A2531642E253032642020204D783A0A
:100F32002531642E25303264004D6E3A2531642EFF
:100F4200253032642020413A2531642E2530326426
:100F5200005052455353204420544F205354415281
:020F6200540039
:00000001FF
