S010000050726F6A656374342E7372656309
S11300000C942A000C9447000C9447000C9447006D
S11300100C9447000C9447000C9447000C94470040
S11300200C9447000C9447000C9447000C94470030
S11300300C9447000C9447000C9447000C94470020
S11300400C9447000C9447000C9447000C94470010
S11300500C94470011241FBECFE5D8E0DEBFCDBF0E
S113006010E0A0E6B0E0E8E5F0E102C005900D92F2
S1130070A23AB107D9F720E0A2EAB0E001C01D928C
S1130080A23AB207E1F70E9488020C942A080C9461
S113009000009C0183E083BF83E808C082BF98B757
S11300A0916098BFA89508B600FEFDCF2150310994
S11300B0A8F713BE0895662311F0C09A01C0C09832
S11300C0C19882BB8FEF81BBC29A00000000000080
S11300D0C2980895C098C19A11BA90B3C29A000008
S11300E00000000011BA90B3C29899239CF30E94B7
S11300F05B000895B89AB99ABA9A80E190E00E9498
S1130100490060E080E30E945B0085E090E00E948B
S1130110490060E080E30E945B0081E090E00E947F
S1130120490060E08CE30E946A0060E08CE00E9479
S11301306A0060E086E00E946A0060E081E00E945C
S11301406A00089560E081E00E946A000895CF93F8
S1130150C62F98E2899FC00D112460E082E00E94BE
S11301606A00CC2331F060E084E10E946A00C1504F
S1130170D1F7CF910895CF93DF93EC012196FC0141
S11301808081882331F061E00E946A0089918111A5
S1130190FACFDF91CF91089514BA15BA95B321E03F
S11301A030E0A901082E02C0440F551F0A94E2F75B
S11301B0492B45BB94B302C0220F331F6A95E2F763
S11301C0922B94BB95B32095292325BB23B330E010
S11301D002C0359527958A95E2F781E090E020FFEB
S11301E002C080E090E008950F931F93CF93DF93B4
S11301F000E010E01AC0BE016C5F7F4FC8010E948E
S1130200CC00009749F0000F111F000F111FC00F01
S1130210D11FCE0101960CC02196C430D10559F7E7
S11302200F5F1F4F0430110519F0C0E0D0E0E3CF99
S1130230DF91CF911F910F9108950E947A000E943F
S1130240A20081E090E008953D983F983E9A089579
S1130250379A369A86B184B195B108954F925F92D8
S11302606F927F928F929F92AF92BF92CF92DF92C2
S1130270EF92FF920F931F93CF93DF93CDB7DEB727
S1130280E4970FB6F894DEBF0FBECDBF8C010E9479
S1130290A200D8018D909D90AD90BC90C501B40191
S11302A00E94E60369A37AA38BA39CA3F80144806C
S11302B0558066807780C301B2010E94E6036DA376
S11302C07EA38FA398A7D80118968D919D910D9028
S11302D0BC91A02D89AB9AABABABBCABBC01CD013F
S11302E00E94E60369A77AA78BA79CA7F801C48498
S11302F0D584E684F784C701B6010E94E6036DA79E
S11303007EA78FA798AB2DA13EA1B901330F880B0F
S1130310990B0E941E049B01AC01C301B2010E940F
S1130320020320E030E048EC52E40E94D3040E942F
S1130330E6037F936F933EA13F938DA18F93A9A171
S1130340BAA1BD01BB0F880B990B0E941E049B012F
S1130350AC01C501B4010E94020320E030E048EC86
S113036052E40E94D3040E94E6037F936F93BAA1E0
S1130370BF93E9A1EF9380E690E09F938F938E0162
S11303800F5F1F4F1F930F930E94400560E080E0B2
S11303900E94A700C8010E94BB002DA53EA5B9017B
S11303A0330F880B990B0E941E049B01AC01C701FB
S11303B0B6010E94020320E030E048EC52E40E94BF
S11303C0D3040E94E6037F936F933EA53F938DA5CC
S11303D08F93A9A5BAA5BD01BB0F880B990B0E94E9
S11303E01E049B01AC0169A97AA98BA99CA90E944E
S11303F0020320E030E048EC52E40E94D3040E945F
S1130400E6037F936F93BAA5BF93E9A5EF9389E7BA
S113041090E09F938F93005F1F4F1F930F930E9451
S1130420400560E081E00E94A700C8010E94BB0073
S11304300FB6F894DEBF0FBECDBFE4960FB6F894A6
S1130440DEBF0FBECDBFDF91CF911F910F91FF9003
S1130450EF90DF90CF90BF90AF909F908F907F9060
S11304606F905F904F9008958F929F92AF92BF923A
S1130470CF92DF92EF92FF92CF93DF936B017C01D7
S1130480EA01688379838A839B832C853D854E8525
S11304905F850E94030320E030E040E05FE30E94B8
S11304A0D3046C877D878E879F872C813D814E8105
S11304B05F81C701B6010E94CE0418162CF4CC82C9
S11304C0DD82EE82FF8219C088849984AA84BB8469
S11304D0A5019401C701B6010E946F0388234CF063
S11304E020E030E0A901C501B4010E946F0381112D
S11304F004C0C886D986EA86FB86DF91CF91FF9037
S1130500EF90DF90CF90BF90AF909F908F90089521
S1130510CF93DF93CDB7DEB760970FB6F894DEBF05
S11305200FBECDBF80E090E0A0E8BFE389839A834B
S1130530AB83BC8380E090E0A0E0B0E48D839E8335
S1130540AF83B88780E090E0A0E4B0E489879A871D
S1130550AB87BC8780E090E0A0E8B0E48D879E87FD
S1130560AF87B88B0E941D010E94240160E080E0E7
S11305700E94A70081E990E00E94BB000E94F40061
S11305804097A1F70E94F4000C97D9F419821A82BB
S11305901B821C821D821E821F82188619861A865F
S11305A01B861C861D861E861F86188A0E94A20032
S11305B060E080E00E94A70081E990E00E94BB0017
S11305C0D5CF0E942801BC0180E090E00E941C0469
S11305D020E030E040EA50E40E94D30420E030EC14
S11305E04FE754E40E947403AE014F5F5F4F0E94D3
S11305F03402CE0101960E942E0184EF91E00E9404
S11306004900C0CF5058BB27AA270E941A030C9454
S113061094040E94860438F00E948D0420F039F47A
S11306209F3F19F426F40C9483040EF4E095E7FB41
S11306300C947D04E92F0E94A50458F3BA176207AD
S113064073078407950720F079F4A6F50C94C70482
S11306500EF4E0950B2EBA2FA02D0B01B9019001D9
S11306600C01CA01A0011124FF27591B99F0593F1D
S113067050F4503E68F11A16F040A22F232F342F65
S11306804427585FF3CF469537952795A795F040B3
S11306905395C9F77EF41F16BA0B620B730B840BC8
S11306A0BAF09150A1F0FF0FBB1F661F771F881F80
S11306B0C2F70EC0BA0F621F731F841F48F48795D8
S11306C077956795B795F7959E3F08F0B0CF9395CA
S11306D0880F08F09927EE0F9795879508950E9443
S11306E0590408F481E008950E9488030C9494044A
S11306F00E948D0458F00E94860440F029F45F3F64
S113070029F00C947D0451110C94C8040C948304B6
S11307100E94A50468F39923B1F3552391F3951B23
S1130720550BBB27AA2762177307840738F09F5F0E
S11307305F4F220F331F441FAA1FA9F335D00E2E7B
S11307403AF0E0E832D091505040E695001CCAF7E8
S11307502BD0FE2F29D0660F771F881FBB1F2617AB
S113076037074807AB07B0E809F0BB0B802DBF0182
S1130770FF2793585F4F3AF09E3F510578F00C9451
S11307807D040C94C8045F3FE4F3983ED4F386954B
S113079077956795B795F7959F5FC9F7880F911D72
S11307A09695879597F90895E1E0660F771F881F5E
S11307B0BB1F621773078407BA0720F0621B730B11
S11307C0840BBA0BEE1F88F7E09508950E94ED03A1
S11307D06894B1110C94C80408950E94AD0488F083
S11307E09F5798F0B92F9927B751B0F0E1F0660FF1
S11307F0771F881F991F1AF0BA95C9F714C0B13032
S113080091F00E94C704B1E008950C94C704672FC7
S1130810782F8827B85F39F0B93FCCF38695779560
S11308206795B395D9F73EF4909580957095619549
S11308307F4F8F4F9F4F0895E89409C097FB3EF474
S113084090958095709561957F4F8F4F9F4F992319
S1130850A9F0F92F96E9BB279395F6958795779597
S11308606795B795F111F8CFFAF4BB0F11F460FF57
S11308701BC06F5F7F4F8F4F9F4F16C0882311F0AF
S113088096E911C0772321F09EE8872F762F05C0C3
S1130890662371F096E8862F70E060E02AF09A955E
S11308A0660F771F881FDAF7880F9695879597F953
S11308B00895990F0008550FAA0BE0E8FEEF1616ED
S11308C01706E807F907C0F012161306E407F50740
S11308D098F0621B730B840B950B39F40A2661F0B4
S11308E0232B242B252B21F408950A2609F4A14057
S11308F0A6958FEF811D811D089597F99F6780E864
S113090070E060E008959FEF80EC089500240A945D
S11309101616170618060906089500240A941216D6
S11309201306140605060895092E0394000C11F409
S1130930882352F0BB0F40F4BF2B11F460FF04C0B6
S11309406F5F7F4F8F4F9F4F089557FD9058440F0F
S1130950551F59F05F3F71F04795880F97FB991F1A
S113096061F09F3F79F087950895121613061406D7
S1130970551FF2CF4695F1DF08C016161706180664
S1130980991FF1CF86957105610508940895E8943F
S1130990BB2766277727CB0197F908950E9459044E
S11309A008F48FEF08950E94E6040C9494040E94C6
S11309B0860438F00E948D0420F0952311F00C94E5
S11309C07D040C94830411240C94C8040E94A5048F
S11309D070F3959FC1F3950F50E0551F629FF0018E
S11309E0729FBB27F00DB11D639FAA27F00DB11DA7
S11309F0AA1F649F6627B00DA11D661F829F222730
S1130A00B00DA11D621F739FB00DA11D621F839FB6
S1130A10A00D611D221F749F3327A00D611D231F8C
S1130A20849F600D211D822F762F6A2F11249F57DA
S1130A3050409AF0F1F088234AF0EE0FFF1FBB1FDD
S1130A40661F771F881F91505040A9F79E3F51059C
S1130A5080F00C947D040C94C8045F3FE4F3983E4A
S1130A60D4F3869577956795B795F795E7959F5F46
S1130A70C1F7FE2B880F911D9695879597F90895D8
S1130A80AEE0B0E0E6E4F5E00C9401080D891E89BF
S1130A9086E08C831A8309838FEF9FE79E838D837F
S1130AA0AE01475E5F4F6F89788DCE0101960E943B
S1130AB06205EF81F885E00FF11F10822E96E4E0C5
S1130AC00C941D08ABE0B0E0E8E6F5E00C94F30705
S1130AD06C017B018A01FC0117821682838181FFEC
S1130AE0CCC1CE0101963C01F6019381F70193FD3F
S1130AF0859193FF81917F01882309F4BAC18532DE
S1130B0039F493FD859193FF81917F01853229F416
S1130B10B60190E00E945907E7CF912C212C312C8B
S1130B20FFE1F315D8F08B3279F038F4803279F0A4
S1130B308332A1F4232D20611DC08D3261F08033F6
S1130B4069F4232D216016C0832D8260382EE32D95
S1130B50E4603E2E2AC0F32DF8601DC037FC2DC082
S1130B6020ED280F2A3040F08E32B9F436FC81C1D2
S1130B70232D2064322E19C036FE06C08AE0989ECA
S1130B80200D1124922E11C0EAE02E9E200D112476
S1130B90222EF32DF0623F2E08C08C3621F4832DD3
S1130BA08068382E02C0883641F4F70193FD8591A0
S1130BB093FF81917F018111B3CF982F9F7D95542D
S1130BC0933028F40C5F1F4F9FE399830DC0833645
S1130BD031F0833771F0833509F059C021C0F80131
S1130BE0808189830E5F1F4F88248394912C530145
S1130BF013C02801F2E04F0E511CF801A080B1800F
S1130C0036FE03C0692D70E002C06FEF7FEFC501AF
S1130C100E944E074C018201F32DFF773F2E16C030
S1130C20280122E0420E511CF801A080B18036FE5A
S1130C3003C0692D70E002C06FEF7FEFC5010E9411
S1130C4043074C01F32DF0683F2E820133FC1BC097
S1130C50822D90E088169906B0F4B60180E290E007
S1130C600E9459072A94F4CFF50137FC859137FE89
S1130C7081915F01B60190E00E94590721102A94E6
S1130C8021E0821A91088114910471F7E8C0843636
S1130C9011F0893641F5F80137FE07C06081718192
S1130CA0828193810C5F1F4F08C060817181072E80
S1130CB0000C880B990B0E5F1F4FF32DFF763F2E10
S1130CC097FF09C090958095709561957F4F8F4FE0
S1130CD09F4FF0683F2E2AE030E0A3010E94950761
S1130CE0882E861845C0853731F4232D2F7EB22EE9
S1130CF02AE030E025C0932D997FB92E8F36C1F0BC
S1130D0018F4883579F0B5C0803719F0883721F0A8
S1130D10B0C0E92FE061BE2EB4FE0DC0FB2DF4601F
S1130D20BF2E09C034FE0AC0292F2660B22E06C089
S1130D3028E030E005C020E130E002C020E132E0EC
S1130D40F801B7FE07C060817181828193810C5FD5
S1130D501F4F06C06081718180E090E00E5F1F4FDD
S1130D60A3010E949507882E8618FB2DFF773F2E3E
S1130D7036FE0DC0232D2E7FA22E891458F434FE86
S1130D800BC032FC09C0832D8E7EA82E05C0B82C62
S1130D90A32C03C0B82C01C0B92CA4FE0FC0FE01C3
S1130DA0E80DF11D8081803321F49A2D997EA92EBE
S1130DB009C0A2FE06C0B394B39404C08A2D8678F9
S1130DC009F0B394A3FC11C0A0FE06C0B21488F4C9
S1130DD0280C922C9B180EC0B21460F4B60180E269
S1130DE090E00E945907B394F7CFB21418F42B186B
S1130DF002C0982C212CA4FE10C0B60180E390E020
S1130E000E945907A2FE17C0A1FC03C088E790E026
S1130E1002C088E590E0B6010CC08A2D867859F0AE
S1130E20A1FE02C08BE201C080E2A7FC8DE2B60104
S1130E3090E00E945907891438F4B60180E390E0E9
S1130E400E9459079A94F7CF8A94F301E80DF11D93
S1130E508081B60190E00E9459078110F5CF2220CD
S1130E6009F442CEB60180E290E00E9459072A9428
S1130E70F6CFF6018681978102C08FEF9FEF2B9604
S1130E80E2E10C940F08FC010590615070400110E0
S1130E90D8F7809590958E0F9F1F0895FC0161509F
S1130EA0704001900110D8F7809590958E0F9F1F88
S1130EB008950F931F93CF93DF93FB01238121FDAB
S1130EC003C08FEF9FEF2CC022FF16C046815781CD
S1130ED0248135814217530744F4A081B1819D01D7
S1130EE02F5F3F4F318320838C93268137812F5F7F
S1130EF03F4F3783268314C08B01EC01FB01008430
S1130F00F185E02D0995892BE1F6D80116968D918E
S1130F109C911797019617969C938E931697CE01E2
S1130F20DF91CF911F910F910895FA01AA272830DC
S1130F3051F1203181F1E8946F936E7F6E5F7F4FA2
S1130F408F4F9F4FAF4FB1E03ED0B4E03CD0670F1E
S1130F50781F891F9A1FA11D680F791F8A1F911D71
S1130F60A11D6A0F711D811D911DA11D20D009F4C1
S1130F7068943F912AE0269F11243019305D319303
S1130F80DEF6CF010895462F4770405D4193B3E0EC
S1130F900FD0C9F7F6CF462F4F70405D4A3318F093
S1130FA0495D31FD4052419302D0A9F7EACFB4E044
S1130FB0A6959795879577956795BA95C9F70097FC
S1130FC06105710508959B01AC010A2E069457959D
S1130FD0479537952795BA95C9F7620F731F841FF4
S1130FE0951FA01D08952F923F924F925F926F928A
S1130FF07F928F929F92AF92BF92CF92DF92EF92A5
S1131000FF920F931F93CF93DF93CDB7DEB7CA1B25
S1131010DB0B0FB6F894DEBF0FBECDBF09942A8850
S1131020398848885F846E847D848C849B84AA84F8
S1131030B984C884DF80EE80FD800C811B81AA8185
S1131040B981CE0FD11D0FB6F894DEBF0FBECDBF50
S10B1050ED010895F894FFCFAF
S1131058493A2531642E253032642020204D783ACF
S11310682531642E25303264004D6E3A2531642EC4
S1131078253032642020413A2531642E25303264EB
S1131088005052455353204420544F205354415246
S10510985400FE
S9030000FC
